:020000040000fa
:080000000002040000000000f2
:020000040000fa
:04000800cc02000026
:020000040000fa
:04000c00cc02000022
:020000040000fa
:04001000cc0200001e
:020000040000fa
:04001400cc0200001a
:020000040000fa
:04001800cc02000016
:020000040000fa
:04001c00cc02000012
:020000040000fa
:04002000cc0200000e
:020000040000fa
:04002400cc0200000a
:020000040000fa
:04002800cc02000006
:020000040000fa
:04002c00640e00005e
:020000040000fa
:04003000cc020000fe
:020000040000fa
:04003400cc020000fa
:020000040000fa
:04003800cc020000f6
:020000040000fa
:04003c00880e00002a
:020000040000fa
:04004000cc020000ee
:020000040000fa
:04004400d60d0000d5
:020000040000fa
:04004800cc020000e6
:020000040000fa
:04004c00cc020000e2
:020000040000fa
:04005000cc020000de
:020000040000fa
:04005400cc020000da
:020000040000fa
:04005800cc020000d6
:020000040000fa
:04005c00cc020000d2
:020000040000fa
:04006000cc020000ce
:020000040000fa
:04006400cc020000ca
:020000040000fa
:04006800cc020000c6
:020000040000fa
:04006c00cc020000c2
:020000040000fa
:04007000cc020000be
:020000040000fa
:04007400cc020000ba
:020000040000fa
:04007800cc020000b6
:020000040000fa
:04007c00cc020000b2
:020000040000fa
:04008000ac0e0000c2
:020000040000fa
:04008400cc020000aa
:020000040000fa
:04008800cc020000a6
:020000040000fa
:04008c00cc020000a2
:020000040000fa
:04009000cc0200009e
:020000040000fa
:04009400cc0200009a
:020000040000fa
:04009800cc02000096
:020000040000fa
:04009c00cc02000092
:020000040000fa
:0400a000cc0200008e
:020000040000fa
:0400a400cc0200008a
:020000040000fa
:0400a800cc02000086
:020000040000fa
:0400ac00cc02000082
:020000040000fa
:0400b000cc0200007e
:020000040000fa
:0400b400cc0200007a
:020000040000fa
:0400b800cc02000076
:020000040000fa
:0400bc00cc02000072
:020000040000fa
:0400c000cc0200006e
:020000040000fa
:0400c400cc0200006a
:020000040000fa
:0400c800cc02000066
:020000040000fa
:0400cc00cc02000062
:020000040000fa
:0400d000cc0200005e
:020000040000fa
:0400d400cc0200005a
:020000040000fa
:0400d800cc02000056
:020000040000fa
:0400dc00cc02000052
:020000040000fa
:0400e000cc0200004e
:020000040000fa
:0400e400cc0200004a
:020000040000fa
:0400e800cc02000046
:020000040000fa
:0400ec00cc02000042
:020000040000fa
:0400f000cc0200003e
:020000040000fa
:0400f400cc0200003a
:020000040000fa
:0400f800cc02000036
:020000040000fa
:0400fc00cc02000032
:020000040000fa
:04010000cc0200002d
:020000040000fa
:04010400cc02000029
:020000040000fa
:04010800cc02000025
:020000040000fa
:04010c00cc02000021
:020000040000fa
:04011000cc0200001d
:020000040000fa
:04011400cc02000019
:020000040000fa
:04011800cc02000015
:020000040000fa
:04011c00cc02000011
:020000040000fa
:04012000cc0200000d
:020000040000fa
:04012400cc02000009
:020000040000fa
:04012800cc02000005
:020000040000fa
:04012c00cc02000001
:020000040000fa
:04013000cc020000fd
:020000040000fa
:04013400cc020000f9
:020000040000fa
:04013800cc020000f5
:020000040000fa
:04013c00cc020000f1
:020000040000fa
:04014000cc020000ed
:020000040000fa
:04014400cc020000e9
:020000040000fa
:04014800cc020000e5
:020000040000fa
:04014c00cc020000e1
:020000040000fa
:04015000cc020000dd
:020000040000fa
:04015400cc020000d9
:020000040000fa
:04015800cc020000d5
:020000040000fa
:04015c00cc020000d1
:020000040000fa
:04016000cc020000cd
:020000040000fa
:04016400cc020000c9
:020000040000fa
:04020800cc02000024
:020000040000fa
:04020c00cc02000020
:020000040000fa
:04021000cc0200001c
:020000040000fa
:04021400cc02000018
:020000040000fa
:04021800cc02000014
:020000040000fa
:04021c00cc02000010
:020000040000fa
:04022000cc0200000c
:020000040000fa
:04022400cc02000008
:020000040000fa
:04022800cc02000004
:020000040000fa
:04022c00cc02000000
:020000040000fa
:04023000cc020000fc
:020000040000fa
:04023400cc020000f8
:020000040000fa
:04023800cc020000f4
:020000040000fa
:04023c00cc020000f0
:020000040000fa
:04024000cc020000ec
:020000040000fa
:04024400cc020000e8
:020000040000fa
:04024800cc020000e4
:020000040000fa
:04024c00cc020000e0
:020000040000fa
:04025000cc020000dc
:020000040000fa
:04025400cc020000d8
:020000040000fa
:04025800cc020000d4
:020000040000fa
:04025c00cc020000d0
:020000040000fa
:04026000cc020000cc
:020000040000fa
:04026400cc020000c8
:020000040000fa
:04026800cc020000c4
:020000040000fa
:04026c00cc020000c0
:020000040000fa
:04027000cc020000bc
:020000040000fa
:04027400cc020000b8
:020000040000fa
:04027800cc020000b4
:020000040000fa
:04027c00cc020000b0
:020000040000fa
:04028000cc020000ac
:020000040000fa
:04028400cc020000a8
:020000040000fa
:04028800cc020000a4
:020000040000fa
:04028c00cc020000a0
:020000040000fa
:04029000cc0200009c
:020000040000fa
:04029400cc02000098
:020000040000fa
:04029800cc02000094
:020000040000fa
:04029c00cc02000090
:020000040000fa
:0402a000cc0200008c
:020000040000fa
:0402a400cc02000088
:020000040000fa
:0402a800cc02000084
:020000040000fa
:0402ac00cc02000080
:020000040000fa
:0402b000cc0200007c
:020000040000fa
:0402b400cc02000078
:020000040000fa
:0402b800cc02000074
:020000040000fa
:0402bc00cc02000070
:020000040000fa
:0402c000cc0200006c
:020000040000fa
:0402c400cc02000068
:020000040000fa
:0402c800cc02000064
:020000040000fa
:0402cc00cc02000060
:020000040000fa
:0402d000cc0200005c
:020000040000fa
:0402d400cc02000058
:020000040000fa
:0402d800cc02000054
:020000040000fa
:0402dc00cc02000050
:020000040000fa
:0402e000cc0200004c
:020000040000fa
:0402e400cc02000048
:020000040000fa
:0402e800cc02000044
:020000040000fa
:0402ec00cc02000040
:020000040000fa
:0402f000cc0200003c
:020000040000fa
:0402f400cc02000038
:020000040000fa
:0402f800cc02000034
:020000040000fa
:0402fc00cc02000030
:020000040000fa
:04030000cc0200002b
:020000040000fa
:04030400cc02000027
:020000040000fa
:04030800cc02000023
:020000040000fa
:04030c00cc0200001f
:020000040000fa
:04031000cc0200001b
:020000040000fa
:04031400cc02000017
:020000040000fa
:04031800cc02000013
:020000040000fa
:04031c00cc0200000f
:020000040000fa
:04032000cc0200000b
:020000040000fa
:04032400cc02000007
:020000040000fa
:04032800cc02000003
:020000040000fa
:04032c00cc020000ff
:020000040000fa
:04033000cc020000fb
:020000040000fa
:04033400cc020000f7
:020000040000fa
:04033800cc020000f3
:020000040000fa
:04033c00cc020000ef
:020000040000fa
:04034000cc020000eb
:020000040000fa
:04034400cc020000e7
:020000040000fa
:04034800cc020000e3
:020000040000fa
:04034c00cc020000df
:020000040000fa
:04035000cc020000db
:020000040000fa
:04035400cc020000d7
:020000040000fa
:04035800cc020000d3
:020000040000fa
:04035c00cc020000cf
:020000040000fa
:04036000cc020000cb
:020000040000fa
:04036400cc020000c7
:020000040000fa
:100400008f8920000e7f22000e018800000000006e
:10041000000020000000e000020032000001200087
:1004200020028800140007005d0007000000e000c3
:1004300003003a00204d2100010020000200370097
:100440000000200001002000810f70000100320038
:1004500014000700000020000000e000020032004d
:100460000000020000000000ae12020000000000c8
:100470000040da000000fe004440a900800a20008d
:100480000000e0000300320000002000a00188000e
:100490004440a800000006008a1f78008b1f7800e7
:1004a0000000060091018800800478000000eb0045
:1004b0001a003700e284440032a0b4009905ba0063
:1004c000e284440032a0b4009906ba00e2844400f9
:1004d00032a0b4000006eb00476fde00fd07b2005b
:1004e000636ce10003003a00ebff07000000eb0043
:1004f0000a003700606ce10004003a00005deb0088
:100500008b05e900fdff3e00040037006168e10053
:10051000010032000086eb000b00070019c7ba008b
:100520001905ba000e04e00003003a000a00e000da
:10053000e0ff3a0000000600fe07b2009e018800be
:100540008a047800f5ff3700395dba008b05e900b1
:100550000c003200295dba008b05e900080032006a
:100560000c00e00003003a00e284440032a0b40032
:10057000f5ff370019ddba008b05e900faff3a00f4
:100580008904e800e184440032a0b40000000600c1
:10059000d2020400000000000040da000000fe006b
:1005a00000000500881f7800020478000801780028
:1005b000cc010700080040004f047800000006004e
:1005c0000000fa00881f780000047800ea815700d4
:1005d0003fb9970088007800202d20000700070011
:1005e0000000e000020035008040eb00017478005c
:1005f0004f0478000080fa00000006006200fa0054
:10060000889fbe008a1f780000057800810478006a
:10061000020478008300780080f92f000f0040006a
:10062000ae0307009a979f00a9979f000000eb0078
:10063000b09f9f001885fb008a04fb000a05ea00b2
:100640004f55de0050022000808f54000d00320014
:10065000e10f55000b003a000a017800880078008d
:100660002f9097009f91970003000100a0979f0093
:100670000000e0008e0032003f9897000000e80084
:10068000b09f9f000a04440050022000808f540055
:10069000040032000900e000e6ff3a003f989700ae
:1006a000840037000000eb00909f9f00809f9f0018
:1006b000f0979f00e0979f00d0979f00c0979f0002
:1006c0000700370021892000010050000000400091
:1006d0006188200061007800df98970001007000b9
:1006e000d09f9f008804780009047800384578007e
:1006f0008a00fb0020892000810107000000e00043
:10070000f0ff3a00a1c2b300814f55000e003a003d
:10071000cf8897000180e900c08f9f00100078000b
:10072000c09f9f000000e00005003d000000ea00bf
:10073000c09f9f005f9897000020a000d09f9f005f
:100740000904e8000f003700c09f9f000000eb0085
:1007500005003700f2ff2700820f50000200320030
:100760006a01b9000280400009047800880478001a
:10077000b900fb000103b100e98f5000f5ff36001e
:10078000c09f9f00e0c2b300984f100002003200eb
:100790000080eb0019003700a0c2b300d84f100052
:1007a00007003a00cf8897000180e900c08f9f00c2
:1007b00010007800a09f9f000804e8001000370098
:1007c0000000eb00a09f9f00880078000500370024
:1007d000f3ff2700830f5000020032006a02b900c5
:1007e0000400410001047800880078003101fb001a
:1007f0000203b100e90f5100f5ff3600a09f9f00f2
:10080000984478008900fb00e08720003c01070045
:100810000000e000020032000804e8000100370098
:100820008044eb00c97f9f0080c6b30080cf540096
:1008300004003a0098cf14000a003a0066405000c5
:1008400006003700c0c6b30080cf540005003a0050
:1008500098cf140003003a0065404000c07f9f001d
:100860000804e8001801fb00e3fb2f008f81410022
:1008700081f92f008f804000a0f92f000f00400069
:10088000100007000000e00009003a00e1fb2f0023
:100890008f804000a0f92f000f0040005302070096
:1008a0000000e000020035000804e80061ff3700a6
:1008b0000080eb004f0578004f04be000080fa0076
:1008c00000000600881f7800e4c6b300844f510082
:1008d000b600320010003c006b425200844f5100c1
:1008e0001800320005003c0054c2b300844f510090
:1008f000ee00320084c5b3000f00370044c6b300d9
:10090000844f51001400320065424200844f510070
:10091000e9003a001000370004c7b300844f5100cb
:10092000d50032005300350065424200844f51002b
:100930005000320063424200844f5100de003a0012
:100940004c0037001181e90082087800f000900027
:1009500012417800d600370020629000c5c6b3006f
:10096000854f520007003a009102780064825200dd
:10097000840878001402be004fabde0086037800c6
:100980001100370015c7b300854f52000300320035
:10099000a5c6b300854f520006003a0091027800c8
:1009a00068825200840878005403be004402be00ee
:1009b000050037001182e9008408780014027800ed
:1009c000cfa2de00612bb9000498be000690be00e5
:1009d000a060900088c6b30088cf50000d003200a0
:1009e00028c6b30088cf500004003a000402fb0080
:1009f000cfa2de00612bb9000800370048c7b30062
:100a000088cf5000030032006644440088cf500075
:100a100004003a00cfa2de00612bb9000498be00aa
:100a20000690be003002be002003be00f000900021
:100a3000e00f5200e08f5a00e00f5b00e08f5b0098
:100a400002003d00d4c2b30008003700001290003d
:100a50000418a30002003200b4c2b3000300370040
:100a60000408a3004c00320004c2b30084f17800f3
:100a70004700370020629000c5c6b300854f520082
:100a800006003a00910278006482520084087800df
:100a90001402be006033b8001100370015c7b30060
:100aa000854f520003003200a5c6b300854f5200a7
:100ab00006003a00910278006882520084087800ab
:100ac0005403be004402be00050037001182e90055
:100ad00084087800140278008002eb006033b800cc
:100ae0000498be000690be00a060900088c6b300c7
:100af00088cf50000d00320028c6b30088cf5000c8
:100b000004003a000482fb008002eb006033b8006e
:100b10000800370048c7b30088cf500003003200f8
:100b20006644440088cf500004003a008002eb0085
:100b30006033b8000498be000690be00801090009c
:100b40000138a300140032003002be002003be00b2
:100b5000e00f5200e08f5a00e00f5b00e08f5b0077
:100b60000d00320081c7b300814f510003003200f5
:100b700081c5b300814f510007003a00f00090009a
:100b800004c3b30084f178008100e80082f17800aa
:100b90008100e80071009800f00090008181410020
:100ba00063009800824078003e003700a06190000a
:100bb000c4c6b3001181e90084cf51002200320085
:100bc0000a003c006442520084cf510025003200ec
:100bd00004c2e80084cf5100130032006842520082
:100be00084cf51001e003a000a00370044c7b3000a
:100bf00084cf51001b0032006642420084cf510076
:100c0000180032006942520084cf510014003a00ab
:100c10000500370082087800920078004058900064
:100c2000804878002c003700820878009200780015
:100c3000600a9000cfa2de00612bb9008498be004c
:100c40008690be0024003700820878009200780069
:100c500060099000cf91de008288be001e00370040
:100c60001181e90082087800920078006008900005
:100c700080087800180037001181e90082087800a8
:100c800012027800cfa2de00612bb9000498be00ea
:100c90000690be00f0009000818141006300980042
:100ca00081c7b300220007000b003700f00090005e
:100cb00082f1780006003700f00090008181410049
:100cc0000204e00001003a0052c2b30082497800f9
:100cd0008100e800710098000000eb004f047800ec
:100ce000000006008001780002003700b15978004a
:100cf0000201e9000200e000fcff3a0000000600eb
:100d0000020037000304e000060032000001780012
:100d100002007800b041780081cf5100f9ff3a001d
:100d2000010037000001eb0002007800000006001f
:100d3000fc874700889fbe008a9fbe008c9fbe0034
:100d40008e1f78000006780080c5b30080cf500069
:100d50000a0032007740400080cf50000a00320085
:100d60006940400080cf50000b003200d086200048
:100d700080bf9f00ae0020000a003700c28520001f
:100d800082bf9f0006003700d386200083bf9f00ec
:100d90008e00200003003700d486200084bf9f000f
:100da0000e0120003c02be002c03be000605be0062
:100db0000404be0040c6b30080cf500003003200e0
:100dc0006540400080cf50000b003a00e00f520019
:100dd000e08f5a00e00f5b00e08f5b0006003d00f3
:100de0006000b8006011b800040450008584580009
:100df0000605590087855900e80f570004003200a6
:100e000040002000f00f570038003a000100370082
:100e100030002000e00f5400e08f5c00e00f5d0028
:100e2000e08f5d0004003a00dc0890008d01200096
:100e30000100e000060032008e00e90088806000ba
:100e40008fba9700e5c07800f1ef9f007d01200088
:100e5000800078008100e900050033008b05d10097
:100e60000a85d3008984d3000884d300f9ff3700b2
:100e7000089ebe000a96be00120037008d06e900eb
:100e80008e00e900848060000fb99700e2c178000d
:100e900082fd2f000f01410003f17e0080007800e9
:100ea0008100e900050033008783d1000683d30069
:100eb0008582d3000482d300f9ff3700049ebe0070
:100ec0000696be003c02be002c03be00e00f52009e
:100ed000e08f5a00e00f5b00e08f5b008b00340076
:100ee0000d00e000e5ff3c00880037002c6090001a
:100ef00081c6b300814f50000b00320006003c0059
:100f00000004e00008003200e6c05000814f5000ad
:100f10004e003a0004003700c1c6b300814f5000b4
:100f20004a003a00210037000800e00004003a00bf
:100f30005c0890008d0120000000e00006003200f7
:100f4000110009000e84d8000fb99700e2c07800a4
:100f5000f1ef9f007d012000110009000e84d800f0
:100f60000a003700110009000e04d8008d06e900c0
:100f70000e81b900020454008fb8970061417c00d3
:100f800081fd2f008f80400082f07e0000047800f9
:100f90000800e000020032000d00e000f1ff3c001c
:100fa000cfc4de00614db90025003700e00f5400ca
:100fb000e08f5c0004003a005c0890008d01200086
:100fc0000000e000070032006171b9000800be00b7
:100fd000630107008fb99700e3417800f3ef9f00aa
:100fe0007d0120006171b9000800be004c010700be
:100ff0000b0037006171b9000800be00390107001d
:101000008d06e90000f1b900020454000fba970000
:10101000e4427c0084fd2f000f02420005f27e00b6
:101020000004be00e00f5000e08f580002003200c4
:101030000d00e000efff3c004fcdde008a05780098
:10104000089ebe000a96be0030003700e00f540034
:10105000e08f5c00e00f5d00e08f5d0004003a006f
:101060005c0890008d0120000000e00009003200c3
:101070006172b900612bb9000800be000a01be0010
:10108000da0107000fba970064427800f4ef9f007e
:101090007d0120006172b900612bb9000800be001b
:1010a0000a01be00ca0107000d0037006172b900d5
:1010b000612bb9000800be000a01be00cf01070085
:1010c0008d06e90000f2b900040454008fba9700bd
:1010d00065427c0085fd2f008f82420084f27e00f5
:1010e000009ebe000296be003c04be002c05be0061
:1010f000e00f5400e08f5c00e00f5d00e08f5d00ca
:10110000020034000d00e000e8ff3c00e80f57004b
:1011100010003a000c1090000038a3000d003200bf
:10112000f78f560006003e0085fd2f008f8242009b
:10113000e5c07e0000c3b30080cf50000500320040
:101140008d06e90002c3b30081fd2f008f804000af
:1011500082f07e0078811600120e98006c009000dc
:1011600083fd2f008f8141008d804100ddfe07004f
:101170001c089000dc089000810f500006003d0024
:1011800000805000000e98000c1090000040a1005c
:10119000001698000f0037000100e0000d003d0030
:1011a0008c109000f4806000f08f500009003a002d
:1011b0007c099000fc009000810051000c09900017
:1011c00082805000008050004240a900010034009d
:1011d000000e98004f0778004f06be004f05be0076
:1011e0004f04be00cf01b100000006000400fa0069
:1011f000889fbe008a9fbe008c1f78000004780084
:1012000001067800f80d9000780090008085550068
:1012100008089000808555001808900080855500ca
:10122000280890008085550038089000808555007a
:1012300048089000808555000002220090bf9f0062
:1012400000032300a0bf9f00081090000028a30007
:1012500015003a000b00e000130034000b05780085
:101260008a047800e20f55000100360029002000b2
:10127000c801900009017800ee80570058009000e6
:1012800003000100500498000000e0008c003200d0
:101290006808900009004000600c9800090555009e
:1012a0004240a900eeff3c00780190000200e000ff
:1012b0000c003400c80190008c00780058009000a9
:1012c00003000100500498008080eb000000e00063
:1012d0007c003200e8089000780090000080400018
:1012e000600c9800880c90000900e00011003400a8
:1012f00009057800e28f5400010036002a00200022
:10130000c80190000a017800ec8057005800900056
:1013100003000100500498000000e0006800320063
:10132000680890000a004000600c98008a8454000d
:10133000edff3700180990000200e0000c003400b7
:10134000c8019000e80090005800900003000100e0
:10135000500498008080eb000000e000590032004b
:10136000e80890001808900000804000600c980089
:10137000a80c90000900e000110034000905780075
:10138000e28f5400010036002a002000c8019000be
:101390000a017800ec80570058009000030001001b
:1013a000500498000000e0004500320068089000fa
:1013b0000a004000600c98008a845400edff37005a
:1013c000380990000200e0000e003400e8009000b0
:1013d0001808900080804000c801900058009000dc
:1013e00003000100500498008080eb000000e00042
:1013f00034003200e8089000380890000080400077
:10140000600c9800c80c90000900e0001100340046
:1014100009057800e28f5400010036002a00200000
:10142000c80190000a017800ec8057005800900035
:1014300003000100500498000000e000200032008a
:10144000680890000a004000600c98008a845400ec
:10145000edff3700081090008000eb000028a3008b
:10146000180032000b00e000160034008b047800f6
:1014700009057800e28f5400010036002a002000a0
:10148000c80190000a017800ee80570058009000d3
:1014900003000100500498000000e0000800320042
:1014a000680890000a004000600c98008a8454008c
:1014b0004240a900eeff3c008000eb000100370035
:1014c0008080eb00010078004f0678004f05be00d9
:1014d0004f04be000080fa000000060001087800fa
:1014e00000000600839f68000100e00002003d004c
:1014f00060001000e08018000300e00002003d00e2
:1015000060011100e0811900050007004f00e000b4
:1015100002003b0060001000e080180000000600a0
:101520006022b800060220000000d0008180d200b6
:101530000482d2008582d2000000a0000202520084
:1015400083825a00030031000202420083824a0073
:101550000000a1000603e900f3ff3a0000000600c6
:10156000efff07000400be0000000600889fbe00d9
:101570008a9fbe0030044200b0844a0030054b0010
:1015800090854b006000b1000898be000a90be0034
:101590000440e10005c8e10006d0e10007d8e10001
:1015a00002003100680040001008e8004f05be004e
:1015b0004f04be0000000600889fbe008a9fbe0048
:1015c0003004be002005be000418540005985c00dd
:1015d00006185d0007985d00110020000440e1003e
:1015e00005c8e10006d0e10007d8e100010039009c
:1015f0008000eb00108810004f05be004f04be00b5
:10160000000006001200fa00889fbe008a9fbe00fc
:101610008c9fbe00e0b79f00f1b79f0082bf9f0084
:1016200093bf9f000605be000404be000000eb004f
:10163000d0b79f00c0b79f00b0b79f00a0b79f0072
:1016400090b79f000006eb005fb19700cfb0970006
:10165000820141003fb097000200e00004003d001d
:10166000370007007e805700c0ff070003003700e7
:10167000330007007e805700cfff0700dfb69700da
:101680000d00e0000c0035006fb29700ffb297002c
:101690000fbb97009fbb97001000200001002000a7
:1016a0006011b800000272008182720002037300b0
:1016b000838373001b0007000c06e8000104200070
:1016c000810f5600e0ff3a000d00e00004003d00ed
:1016d0000802be000a03be007e805700a3ff070079
:1016e0005fa897000000e00005003a001fb29700d5
:1016f000afb297003fb39700cfb397000900070040
:101700006fb09700ffb097000fb997009fb997008f
:101710004f06be004f05be004f04be000080fa0019
:10172000000006000100070000000600a4b79f00ab
:10173000b5b79f00c6b79f00d7b79f00000006004f
:101740004f09de0082817100b3b79f004f01de00b8
:101750008180400082807000a1b79f008fb0970009
:101760004f09de00000040000200700090b79f00ab
:101770007fa897004f01de008180400082807000ca
:1017800081b79f000d0007004f3ade0000004000c7
:1017900004007000f0af9f00080007000402420040
:1017a00085824a0006034b0087834b00dfff07005a
:1017b0000802be000a03be00000006002fb2970018
:1017c000bfb297004fb39700dfb397000000060049
:1017d000881f780018002000881f780089ff070004
:1017e0008f87e9004f04780000000600801feb009f
:1017f00084ff07008f87e90000000600889fbe0075
:101800008a9fbe00e00f5000e08f5800e00f5900a3
:10181000e08f59000c003d006044b8006055b800ee
:101820000000540081805c0002015d0083815d0046
:10183000180020001500070008003d0018000700f0
:101840000004eb00050037000004eb000f00070068
:1018500002003d001200070018002000dcff070016
:101860000800e000060032006022b8006033b800d3
:101870000000520081805a0002015b0083815b00fe
:101880004f05be004f04be0000000600e00f5200ee
:10189000e08f5a00e00f5b00e08f5b000000060065
:1018a0006044b8006055b8000402540085825c00b2
:1018b00006035d0087835d0000000600889fbe0070
:1018c0008a9fbe008c1f7800e00f5000e08f580008
:1018d000e00f5900e08f59000d003d006044b80052
:1018e0006055b8000000540081805c0002015d007a
:1018f00083815d001c0020000820e10009a8e100b0
:101900000ab0e1000bb8e1000d003d00080037000f
:101910000006eb00e00f5200e08f5a00e00f5b0082
:10192000e08f5b0006003d006044b8006055b800e1
:101930000402540085825c0006035d0087835d001d
:10194000aaff07000c00e000060032006022b80089
:101950006033b8000000520081805a0002015b0031
:1019600083815b004f0678004f05be004f04be0028
:04197000000006006d
:020000040000fa
:101974005468000065200000616c00006172000082
:101984006d200000686100007320000062650000a3
:10199400656e000020740000726900007070000021
:1019a40065640000210000005061000073730000b2
:1019b400776f000072640000204100006363000040
:1019c400657000007465000064210000205400006c
:1019d40068650000206100006c610000726d000009
:1019e40020770000696c00006c2000006e6f00001e
:1019f4007720000062650000206400006973000025
:101a0400617200006d65000064000000496e000012
:101a1400636f0000727200006563000074200000b0
:101a24005061000073730000776f0000726400005f
:101a34002e200000506c00006561000073650000fa
:101a440020740000727900002061000067610000ca
:101a5400696e0000004c00006967000068740000b3
:101a64003a20000025690000005300006f75000053
:101a74006e6400003a200000256900000050000058
:101a8400726f0000783100003a20000025690000e0
:101a94002c200000507200006f780000323a0000e1
:101aa40020250000692c000020500000726f000007
:101ab400783300003a20000025690000000000008f
:020000040000fa
:101ac4000000fa00113a8000f00b20000081600051
:101ad40060042000710520002374200080497800f0
:101ae400814978008249780001368000f00f2e0089
:101af4008080600000202100010070000036880012
:101b04000136800000fe2f00008060003001b30029
:101b1400003688003135800000fe2f000080600010
:101b2400a000b3003035880051368000f00f2e003d
:101b34008080600000502000010070005036880052
:101b44007134800000fe2f00008060006000b3004c
:101b54007034880071348000f00f2e000080600023
:101b640000b0a00070348800a134800000fe2f0073
:101b7400008060000020a000a0348800103a80009b
:101b8400000178000260a0006004200071052000bc
:101b940023742000804978008149780082497800c4
:101ba4000080fa00000006003400f800881f780066
:101bb40008002000a80188004f0478000000fa0003
:101bc4008621ef0084e0a9000080fa003400f900c7
:101bd400004006000000fa0011e1a9001081a900ec
:101be40010a1a8001021a9008461a900210c800083
:101bf40080ff2f00008060006000b300200c88008c
:101c04008a61a900510c800080ff2f0000806000d1
:101c14006000b300500c880011e1a8000080fa00b5
:101c2400000006000000fa0013e1a90042e1a90047
:101c3400110a8000f0f92f0000806000100a88006b
:101c4400110a800080ff2f00008060000000a000c7
:101c5400100a88001281a90012a1a8001221a9006b
:101c64000080eb007008880013e1a80046e1a90099
:101c7400310a8000f0f92f0000806000300a8800eb
:101c8400310a800080ff2f00008060000000a00067
:101c9400300a88005ae1a900d10a8000f0f92f0027
:101ca40000806000d00a8800d10a800080ff2f00e5
:101cb400008060000000a000d00a88000080fa00c4
:101cc40000000600809fbe003400f80000002000e1
:101cd400a00188000000fa00704080008040880065
:101ce400000a8000704088007140800080408000bd
:101cf40000805000404088008420a9000080fa0041
:101d04003400f9004f00be0000400600809fbe0072
:101d14003400f80000002000a00188000000fa0050
:101d240090408000a0408800200a800090408800f5
:101d340091408000a0408000008050005040880006
:101d440084a0a9000080fa003400f9004f00be000e
:101d540000400600809fbe003400f8000000200010
:101d6400a00188000000fa00b0408000c040880054
:101d7400c00a8000b0408800b1408000c0408000ac
:101d8400008050006040880086c0a9000080fa00ee
:101d94003400f9004f00be00004006000000fa00c5
:101da400cae2a900cae2a800400220000100200003
:101db40064030700cae2a9000080fa0000000600dc
:101dc4000000fa00cb22a900cb22a8004002200088
:101dd400010020005b030700cb22a9000080fa0069
:101de400000006000000fa00caa2a900caa2a800c6
:101df400400220000100200052030700caa2a900eb
:101e04000080fa0000000600801f78000000fa003d
:101e1400b0118000004078002ae8b70087c0a9000c
:101e2400d04080000000e800d04088000080fa0024
:101e34004f007800004006000000fa00881f780078
:101e4400a0cb28002e030700a0c0b3001603070090
:101e5400d0c0b30014030700100020000040880025
:101e6400900137000228ef00c082200024030700fd
:101e7400201680000000d1006140600000c0ea002c
:101e8400614060000080fb006100600000004000d1
:101e9400211680000110a1000100700020168800a6
:101ea400e0f22600810020002603070020168000af
:101eb400004078006140600000c0ea0061406000ba
:101ec4000080fb0061006000211680000100a10079
:101ed400010070002016880045003700201680009d
:101ee4000000d1006140600000c0ea006140600071
:101ef4000080fb00610060000000400021168000ab
:101f04000110a1000100700020168800e0f22600f4
:101f1400810020000b030700201680000040780099
:101f24006140600000c0ea00614060000080fb0086
:101f340061006000211680000100a1000100700012
:101f44002016880001003700000000009011800076
:101f5400610060000000e000e0ff320018408000f3
:101f6400dd0207008184200080707c001040800026
:101f74008184200061407800cb020700104080007b
:101f84000000e80010408800201680000000d10006
:101f94006140600000c0ea00614060000080fb0016
:101fa4006100600000004000211680000110a100c3
:101fb4000100700020168800e0f226008100200055
:101fc400e0020700201680000040780061406000b5
:101fd40000c0ea00614060000080fb006100600016
:101fe400211680000100a100010070002016880065
:101ff40010408000e70f5000d3ff3400a0c0b300ae
:10200400a9020700d0c0b300a70207008084200003
:1020140090407800208520001040780080cf500048
:10202400e6003a00201680000000d1006140600004
:1020340000c0ea00614060000080fb0061006000b5
:1020440000004000211680000110a1000100700072
:1020540020168800e0f2260081002000b902070063
:1020640020168000004078006140600000c0ea0053
:10207400614060000080fb00610060002116800068
:102084000100a10001007000201688009084200047
:1020940090407800308520001040780080cf5000b8
:1020a40000013a00201680000000d1006140600069
:1020b40000c0ea00614060000080fb006100600035
:1020c40000004000211680000110a10001007000f2
:1020d40020168800e0f22600810020009902070003
:1020e40020168000004078006140600000c0ea00d3
:1020f400614060000080fb006100600021168000e8
:102104000100a1000100700020168800a0842000b6
:1021140090407800408520001040780080cf500027
:10212400e0003a00201680000000d1006140600009
:1021340000c0ea00614060000080fb0061006000b4
:1021440000004000211680000110a1000100700071
:1021540020168800e0f226008100200079020700a2
:1021640020168000004078006140600000c0ea0052
:10217400614060000080fb00610060002116800067
:102184000100a1000100700020168800b084200026
:1021940090407800508520001040780080cf500097
:1021a400c0003a00201680000000d10061406000a9
:1021b40000c0ea00614060000080fb006100600034
:1021c40000004000211680000110a10001007000f1
:1021d40020168800e0f22600810020005902070042
:1021e40020168000004078006140600000c0ea00d2
:1021f400614060000080fb006100600021168000e7
:102204000100a1000100700020168800c084200095
:1022140090407800608520001040780080cf500006
:10222400a0003a00201680000000d1006140600048
:1022340000c0ea00614060000080fb0061006000b3
:1022440000004000211680000110a1000100700070
:1022540020168800e0f226008100200039020700e1
:1022640020168000004078006140600000c0ea0051
:10227400614060000080fb00610060002116800066
:102284000100a1000100700020168800d084200005
:1022940090407800708520001040780080cf500076
:1022a40080003a00201680000000d10061406000e8
:1022b40000c0ea00614060000080fb006100600033
:1022c40000004000211680000110a10001007000f0
:1022d40020168800e0f22600810020001902070081
:1022e40020168000004078006140600000c0ea00d1
:1022f400614060000080fb006100600021168000e6
:102304000100a1000100700020168800e084200074
:1023140090407800808520001040780080cf5000e5
:1023240060003a00201680000000d1006140600087
:1023340000c0ea00614060000080fb0061006000b2
:1023440000004000211680000110a100010070006f
:1023540020168800e0f2260081002000f901070021
:1023640020168000004078006140600000c0ea0050
:10237400614060000080fb00610060002116800065
:102384000100a1000100700020168800f0842000e4
:1023940090407800908520001040780080cf500055
:1023a40040003a0060cd2800d50107000028ef0066
:1023b400c422a900c402a9003a00370020168000f4
:1023c4000000d1006140600000c0ea00614060008c
:1023d4000080fb00610060000000400021168000c6
:1023e4000110a1000100700020168800e0f2260010
:1023f40081002000d30107002016800000407800ef
:102404006140600000c0ea00614060000080fb00a1
:1024140061006000211680000100a100010070002d
:102424002016880080d02800b5010700a0c0b300a2
:102434009d010700d0c0b3009b0107002016800057
:102444000000d1006140600000c0ea00614060000b
:102454000080fb0061006000000040002116800045
:102464000110a1000100700020168800e0f226008f
:1024740081002000b301070020168000004078008e
:102484006140600000c0ea00614060000080fb0021
:1024940061006000211680000100a10001007000ad
:1024a4002016880000408000e10f50006dfe3200cd
:1024b4004f0478000080fa00000006000200fa00d1
:1024c4000000eb00000f780020168000610060001f
:1024d4000000e0000c003a00201680000000d1004b
:1024e4006140600000c0ea00614060000080fb00c1
:1024f4006100600000004000211680000110a1006e
:102504000100700020168800201680006200600020
:102514000000e0000b003a00201680000040780024
:102524006140600000c0ea00614060000080fb0080
:1025340061006000211680000100a100010070000c
:10254400201688001e0fe800e0f22600810020001b
:102554007c010700dcff3700fa00fa0058fd070091
:102564009cfd0700affd0700480107000080eb0059
:1025740060198800c022ef00c822ef00c422ef00d7
:102584008420a9009420a80094a0a80084a0a900f5
:1025940086c0a90096c0a80084e0a90094e0a80021
:1025a400c002a900c022a900c9e2a800c8c2a800ac
:1025b400c8e2a900c882a800c8a2a900c902a8004c
:1025c400c922a900f5fd070006fe0700fcfd07006f
:1025d400b000200048000700b000200039000700c8
:1025e40030408800a000200043000700a000200025
:1025f4003400070020408800314080007900470003
:10260400811f7800d1d22800811f7800ebf70700e2
:10261400e48757007900470039010700a0c0b300e0
:1026240021010700a0c0b3001f0107002140800062
:10263400d00720000e004000811f780071d32800cd
:10264400811f7800ddf70700e4875700d0072000da
:102654000e0040002a010700a0c0b30012010700c9
:10266400a0c0b30010010700634080005240800006
:1026740041408000100e20000e004000831f7800af
:10268400821f7800811f780011d42800811f7800f0
:10269400caf70700e8875700100e20000e0040001c
:1026a40017010700a0c0b300ff000700a0c0b300db
:1026b400fd000700009524002123200021010700cc
:1026c400baff37000200fa00000f78001e007800fd
:1026d400401988002023a800000000000019800091
:1026e400610060000000e000fcff32000018800080
:1026f4000080fa00000006000200fa00000f7800d3
:102704001e0078000b00070060198800000e2000ee
:10271400001988002143a8003023ef0020f0210095
:10272400201988002223ef0021e3a8000080fa008a
:10273400000006000400fa0010079800e0ff2f00d4
:10274400000f78001e0090000000e00002003a0034
:10275400e0ff2f00000f78001e009000e10f5000f2
:1027640002003a00d0ff2f00000f78001e009000f6
:10277400e20f500002003a00b0ff2f00000f780073
:102784001e009000e30f500002003a0070ff2f007b
:10279400000f78001e009000e40f500002003a0081
:1027a400f0fe2f00000f78001e009000e50f50008f
:1027b40002003a00f0fd2f00000f78001e00900088
:1027c400e90f500002003a00f0df2f00000f7800fc
:1027d4001e009000ea0f500002003a00f0bf2f00e4
:1027e400000f78001e009000eb0f500002003a002a
:1027f400f07f2f00000f78001e009000ec0f5000b7
:1028040002003a00f0ff2e00000f78001e0078004e
:102814000080fa00000006000200fa00000f7800b1
:102824001c68ef001d68ef001e68ef001f68ef00d2
:102834002068ef0005003700008f2d001e0f4000b8
:102844001cc8bf000040e8001ce8b700f07022007c
:102854009e007800808f5000f7ff3c000500370091
:1028640081c12f001e8f40001dc8bf000040e8003a
:102874001de8b700703e20009e007800808f500055
:10288400f7ff3c0005003700c1f92f001e8f400000
:102894001ec8bf000040e8001ee8b7003006200054
:1028a4009e007800808f5000f7ff3c000500370041
:1028b4009e0078006a8f50001fc8bf000040e800e7
:1028c4001fe8b7001e007800e90f5000f8ff3c0035
:1028d4001e0078000040780020e8b7001cc8bf0044
:1028e4000043b0001ce8b7001dc8bf000043b0009f
:1028f4001de8b7001ec8bf000043b0001ee8b700c3
:102904001fc8bf000043b0001fe8b70020c8bf00c5
:102914000043b00020e8b7000080fa000000060081
:102924000400fa00100798009e009000010f780040
:102934002228ef001e00780062ff07001041880083
:102944001e0078005fff0700114180000100400075
:10295400104188001e0078005aff070011418000d2
:1029640001004000104188001e00780055ff070058
:102974001141800001004000104188001141800095
:102984004000200000017800110009008200d800f6
:1029940010418800104180000080fa000000060009
:020000040000fa
:1029a4001c08000008000000000000002c080000c3
:1029b4003000000002000000506c65006173650087
:1029c40020656e00746572002074680065207000d4
:1029d40061737300776f7200643a20000020200056
:1029e400202020002020200020007000617373004c
:1029f400776f720064000000000800001c000000f3
:102a0400000000002408000008000000020000008c
:102a14006400140000c80000300000007e080000bc
:102a24001a00000002000000686a6c00747a4c000e
:102a34000000010000020000040008000010000073
:102a4400000020002b2d2300300000005c08000053
:102a5400220000000200000030313200333435001f
:102a640036373800394142004344450046003000bf
:102a7400313233003435360037383900616263004f
:0c2a840064656600000000000000000017
:020000040000fa
:102a90000000fa0060012000c011880031e2a800a7
:102aa0003342a8000080fa00000006000200fa008d
:102ab000004f7800000000009111800000202000ed
:102ac000008060000000e000fbff3a001e00fb00f9
:102ad000a01188000080fa00000006000000fa0043
:102ae0000000000090118000610060000000e00024
:102af000fcff3200b0118000004078000080fa0036
:102b0000000006000200fa00000f78000400370001
:102b10001e007800104078001e0fe800e3ff070059
:102b20001e007800104078000004e000f8ff3a0032
:102b3000a0c0b300ddff0700d0c0b300dbff07007b
:082b40000080fa00000006000d
:020000040000fa
:102b4800f03fb1000180b10006003500ee03090036
:102b580000000000403fb1000180b100fbff3d00d4
:102b68001000b000203fb0000200350000800900ce
:082b780000000000000006004f
:020000040000fa
:0200000401f009
:04000c008000000070
:020000040000fa
:0200000401f009
:04001000a300000049
:020000040000fa
:0200000401f009
:040014005f00000089
:00000001FF
